:020000040800F2
:100000000020002075110008D9100008DB1000083E
:1000100000000000000000000000000000000000E0
:10002000000000000000000000000000DD100008DB
:100030000000000000000000DF100008E1100008D0
:10004000C511000800000000C5110008C511000816
:10005000C5110008C5110008C5110008ED10000801
:1000600000000000C5110008C5110008C5110008F6
:10007000C5110008C5110008C511000800000000E6
:10008000C5110008C511000800000000C5110008D6
:10009000C5110008C5110008C5110008C5110008E8
:1000A000C5110008C5110008C5110008C5110008D8
:1000B000C511000800000000000000000000000062
:1000C00010B5064C2378002B07D1054B002B02D02E
:1000D000044800E000BF0123237010BD040000208D
:1000E0000000000024120008044B10B5002B03D0C0
:1000F0000349044800E000BF10BDC04600000000F6
:1001000008000020241200080023C25C0133002AEA
:10011000FBD1581E7047000002B4714649084900DF
:10012000095649008E4402BC7047C04602B471466D
:1001300049084900095C49008E4402BC7047C0462A
:10014000002243088B4274D303098B425FD3030A16
:100150008B4244D3030B8B4228D3030C8B420DD329
:10016000FF22090212BA030C8B4202D312120902B7
:1001700065D0030B8B4219D300E0090AC30B8B42F5
:1001800001D3CB03C01A5241830B8B4201D38B03A3
:10019000C01A5241430B8B4201D34B03C01A524148
:1001A000030B8B4201D30B03C01A5241C30A8B428B
:1001B00001D3CB02C01A5241830A8B4201D38B0276
:1001C000C01A5241430A8B4201D34B02C01A52411A
:1001D000030A8B4201D30B02C01A5241CDD2C3098C
:1001E0008B4201D3CB01C01A524183098B4201D308
:1001F0008B01C01A524143098B4201D34B01C01AF3
:10020000524103098B4201D30B01C01A5241C3086A
:100210008B4201D3CB00C01A524183088B4201D3D9
:100220008B00C01A524143088B4201D34B00C01AC5
:100230005241411A00D20146524110467047FFE731
:1002400001B5002000F006F802BDC0460029F7D035
:1002500076E770477047C04610B5040000F01CFCFC
:10026000FA218900FFF76CFF00F070F801200022EE
:100270002100404200F030F8002010BD1023064A53
:1002800010B5116800200B431360FFF7E5FF00F085
:10029000D7FE002010BDC04600200240024A13686D
:1002A000013313607047C04620000020014B1868DE
:1002B0007047C0462000002037B50190FFF7F6FFD9
:1002C000019C0500631C5A1E9341E418FFF7EEFFE2
:1002D000401BA042FAD337BD70B58901002814DA5B
:1002E0000F23C0B20340083B114A9B089B009B1898
:1002F000032210409040FC3215001140854081409F
:10030000DC69AC432143D96170BD032583082840D3
:10031000A840FC352E00074A9B009B18C02286404F
:100320002940814092009C58B44321439950EBE707
:1003300000ED00E000E100E01F2318401E3B834079
:10034000014A13607047C04600E100E0094A431EBD
:10035000012093420DD8C021074A08485360036A20
:1003600009061B021B0A0B4303620020072390604F
:1003700013607047FFFFFF0010E000E000ED00E0B9
:10038000054B1A68042802D11043186070470421F5
:100390008A431A60FAE7C04610E000E0704710B5E3
:1003A000FFF7FCFF10BD0000F0B50B6887B00293AB
:1003B00000230191029ADA4001D107B0F0BD012279
:1003C0009A4003920399029A0A40009200D18CE06D
:1003D000019A1021526816008E43022E0ED1072575
:1003E0001D40AD000139A940DC08A4000419276AAA
:1003F0008F4301990969A9400F43276203245F00D5
:10040000BC40E4430568013E2540AC460325154049
:10041000BD4061460D430560012E0FD801998668E5
:10042000CD682640BD40354385604668039915096F
:100430008E4301210D409D4035434560C5680199BB
:100440002C408D688021BD4049052C43C4600A4280
:100450004BD00121264C0326A5691E400D43A56102
:10046000A4699D080C400594059C0F242149AD000A
:10047000B6006D18B4409021AF68C905A7430024A9
:1004800088420CD01C490134884208D01B490134F1
:10049000884204D01A490334884200D1023CB44057
:1004A00000993C430E00AC60164CCD4327683E4398
:1004B000D10301D43E002E4026606768009E3E4373
:1004C000910301D43E002E406660A768009E3E4323
:1004D000D10201D43E002E40A660E668009F37435B
:1004E000920201D42E403700E760013362E7C04634
:1004F00000100240000001400004004800080048CD
:10050000000C00480004014000690840411E884179
:10051000C0B27047002A01D0816170478162FCE758
:10052000436959404161704770470000044B10B562
:100530005A69104202D05861FFF7F6FF10BDC0465D
:1005400000040140F0B5036885B00500DB072FD437
:100550002B689B0700D581E02B681B0700D5BCE00A
:100560002B685B0700D5DFE02B68DB061AD56A69CC
:10057000B54C0423012A00D04BE1616B02260B43EA
:100580006363636B1A436263FFF790FE0700636B5C
:10059000334200D136E1F821626BAB698A43DB005C
:1005A00013436363296A002900D059E1002013E056
:1005B0000C21A54C62680A40042A06D063680B40EF
:1005C000082B0BD16368DB0308D523689B03BFD5D9
:1005D0006B68002BBCD1012005B0F0BD6B68012B0E
:1005E00013D1802322685B0213432360FFF75EFE72
:1005F00080260700B60223683342A9D1FFF756FED2
:10060000C01B6428F7D90320E6E7002B16D1236826
:100610008E4A80261340236023688D4AB602134019
:100620002360FFF743FE07002368334200D18FE7C2
:10063000FFF73CFEC01B6428F6D9E4E7052B05D183
:1006400080232268DB0213432360CAE723687F4AC2
:100650001340236023687E4A1340C6E70C227A4C7D
:100660006368134206D063681340082B10D1636897
:10067000DB030DD423689B0702D5EB68012BAAD1BD
:10068000F82122682B698A43DB001343236063E768
:10069000EA680123002A0FD0226802261343236050
:1006A000FFF704FE070023683342E9D1FFF7FEFDA0
:1006B000C01B0228F7D9A6E7226802269A432260C7
:1006C000FFF7F4FD07002368334200D144E7FFF74A
:1006D000EDFDC01B0228F6D995E7EA6901235A4CC3
:1006E000002A10D0626A022613436362FFF7DEFD20
:1006F0000700636A334200D032E7FFF7D7FDC01B23
:100700000228F6D97FE7626A02269A436262FFF7FF
:10071000CDFD0700636A334200D121E7FFF7C6FD34
:10072000C01B0228F6D96EE780220021464C5205F4
:10073000E3690091134208D1E3691343E361E3697C
:1007400013400393039B012300938027414E7F00B6
:1007500033683B4206D0AB68012B13D1226A1343A6
:10076000236230E033683B433360FFF79FFD019025
:1007700033683B42EFD1FFF799FD019BC01A642813
:10078000F6D940E70122002B14D1236A02279343B4
:100790002362236A033293432362FFF787FD060037
:1007A000236A3B4225D0FFF781FD2B4B801B9842EB
:1007B000F6D928E7052B0BD1216A013B0B432362B5
:1007C000236A1A432262FFF771FD022706000DE03B
:1007D000236A934304222362236A9343C0E7FFF70B
:1007E00065FD1D4B801B984200D90CE7236A3B42F4
:1007F000F5D0009B012B00D0B6E6E369174A134001
:10080000E361B1E6FFF752FDC01B022800D8BEE647
:10081000F9E6053203D1626B9A436263BBE6626B11
:100820000226134301226363636B93436363FFF701
:100830003DFD0700636B334200D1B3E6FFF736FDA1
:10084000C01B0228F6D9DEE600100240FFFFFEFFC3
:10085000FFFFFBFF0070004088130000FFFFFFEF69
:100860000C22264C012063681340082B00D1B3E60C
:100870002368234A1340236002292FD1FFF716FD76
:1008800080260700B6042368334221D10F22E36A91
:100890009343EA6A1343E362696AAB6A62680B4393
:1008A000184980250A4013436360802322685B0453
:1008B00013432360FFF7FAFC0600AD0423682B42C4
:1008C00000D073E6FFF7F2FC801B0228F6D99AE607
:1008D000FFF7ECFCC01B0228D5D994E6FFF7E6FC35
:1008E00080250600AD0423682B4200D15EE6FFF7A9
:1008F000DDFC801B0228F6D985E6C04600100240C8
:10090000FFFFFFFEFFFFC2FF70B5144C88B010223E
:100910002100684600F07CFC210004AD102210315B
:10092000280000F075FC0C220D4E73681A40082A4E
:1009300011D10F206A46990C0140545CF26A0240C2
:10094000A95CDB0305D50748FFF7FAFB604308B055
:1009500070BD0548FAE70348F9E7C0463C120008B5
:100960000010024000127A0000093D00F7B5012294
:10097000434C060023680F0013408B421CD332689F
:10098000930723D4D30729D4012322681A4097421E
:1009900067D333683B4C5B076AD4FFF7B5FF6368E6
:1009A000394A1B061B0FD35CD840384B1860002017
:1009B000FFF752FC002008E0236893430B432360B9
:1009C000236813409942DAD00120FEBDF0202D4962
:1009D0004B688343B06803434B60D3E7294D72688B
:1009E0002B68012A1AD19B03EED503216B688B4338
:1009F00013436B60FFF75AFC73680190012B15D10C
:100A00000C226B681340042BBED0FFF74FFC019BF8
:100A1000C01A1F4B9842F3D90320D6E7022A02D10D
:100A20009B01E2D4D0E79B07DFD4CDE7022B12D0A5
:100A30000C226B681342A7D0FFF738FC019BC01A49
:100A4000134B9842F4D9E7E7FFF730FC019BC01A3B
:100A50000F4B9842E0D80C226B681340082BF3D15F
:100A600092E722689A43226022681A42ACD190E74A
:100A70006368084A1340F268134363608DE7C04619
:100A80000020024000100240721200080000002006
:100A900088130000FFF8FFFF014B18687047C0463D
:100AA00000000020044B054A5B685B055B0FD35CCC
:100AB000034A1068D84070470010024082120008B4
:100AC0000000002070B504000568C26983680069F1
:100AD0002968034360693F4E03433F481343014085
:100AE0000B432B606B683D49206A0B40E1680B4368
:100AF0006B60A369A9680343394801400B43AB60AD
:100B000080231B02B54210D103203649096B0140F6
:100B10003548405C9A4213D0082858D8FFF706FBA6
:100B2000375742574B575757500030498D424CD199
:100B30009A422CD1FFF7B6FF636840005B080BE0D8
:100B4000082821D8FFF7E8FAF620052018202020F1
:100B50001B0063685808264BC0186168FFF7F0FA5D
:100B600083B200200F22190091430A001B0721685D
:100B70005B0F1343CB6070BDFFF7C6FEDCE7636815
:100B8000580880235B02E7E701200023EAE7FFF72C
:100B900089FF61684B081818FFF7D2FA80B2E86045
:100BA0000020E8E76168134B4808C018FFF7C8FA4F
:100BB00080B2F060F4E7FFF7A7FE61684B08F4E746
:100BC000802361681B024808EFE79A42DCD00120CD
:100BD000D1E7C04600380140F369FFFFFFCFFFFFB8
:100BE000FFF4FFFF001002405C12000800440040C8
:100BF0000024F40000127A00436A30B5DA0706D503
:100C00000168284C4A682240846A22434A609A0755
:100C100006D50168244C4A682240C46A22434A60CF
:100C20005A0706D50168214C4A682240046B2243CA
:100C30004A601A0706D501681D4C4A682240446B79
:100C400022434A60DA0606D501681A4C8A682240B7
:100C5000846B22438A609A0606D50168164C8A681E
:100C60002240C46B22438A605A0610D50168134D96
:100C70004A68046C2A4022434A608022520394420C
:100C800005D14A680E4C2240446C22434A601B0640
:100C900006D502680B4953680B40816C0B435360C7
:100CA00030BDC046FFFFFDFFFFFFFEFFFFFFFBFF64
:100CB000FF7FFFFFFFEFFFFFFFDFFFFFFFFFEFFF04
:100CC000FFFF9FFFFFFFF7FF70B5041E01D101205A
:100CD00070BD050069352B78DBB2002B04D1020012
:100CE0006832137000F0D4F92423012122682B709C
:100CF000136820008B431360FFF7E4FE0128E6D061
:100D0000636A002B02D02000FFF776FF23680B49AF
:100D10005A6800200A4008215A609A688A439A60FB
:100D2000012219680A431A6022002023E0666A3211
:100D300068342B7013702070CAE7C046FFF7FFFFBE
:100D4000F8B504000E0015001F002268D369334077
:100D50009B1B59424B41AB4201D0002018E0069B3F
:100D60000133F3D0069B002B13D123680C491A687A
:100D700003200A401A609A68A331FF318A439A60BF
:100D800022002023693213705370002368342370CB
:100D9000F8BDFFF78BFA069BC01B8342D5D2E4E770
:100DA0005FFEFFFFF0B5070085B0039369373B781E
:100DB00004000D0016000220202B46D10138002926
:100DC00043D0002A41D08023A2685B019A4204D11B
:100DD0002369002B01D1014237D1230068331A78EF
:100DE0000220012A31D001221A700023E366213348
:100DF0003B70FFF75BFA230050331E805E80802635
:100E000002907601210052310A8892B2002A0DD157
:100E1000039B402100932000029BFFF791FF0028D5
:100E200012D1202368343B7020700EE00B88002222
:100E3000013B9BB20B80039B802100932000029B0F
:100E4000FFF77EFF002802D0032005B0F0BDA368A5
:100E50002268B34208D12369002B05D12B880235C3
:100E6000DB05DB0D1385CDE72B7801351385C9E74D
:100E7000102330B5A02291B002240125089300234D
:100E8000920304A8049407950C940D930E920F936B
:100E9000FFF758FB002800D0FEE7072302900390DD
:100EA0002900684601940093FFF760FD041E00D0FE
:100EB000FEE7FFF7F1FDFA218900FFF741F9FFF79F
:100EC00045FA0420FFF75CFA01202200210040428D
:100ED000FFF702FA11B030BD10B59024E4052021CF
:100EE0002000FFF71DFBC820FFF7E6F920212000B6
:100EF000FFF716FB10BD000010B50400FFF704F962
:100F0000034B82B221000348FFF74CFF10BDC046DF
:100F1000FFFF000094000020F0B589B0FFF7AEF9A4
:100F2000FFF7A6FF80203E4B00035969802701434D
:100F300059615A690024024080200092009A596940
:100F4000C0030143596180215A69890202409020FF
:100F50000192019A5A69C0050A435A615B690022ED
:100F60000B4002932021029BFFF7D4FA2D4BBF01C7
:100F700003A92D48049303970594FFF715FA9020D1
:100F80000125032303A9C005039504930594FFF7E6
:100F90000BFA9020202303A9C00503930495059420
:100FA0000694FFF701FA220021000720FFF794F9C9
:100FB0000720FFF7C1F91D481D4B9626036030231B
:100FC00043628023B6010B355B0146608460C460D8
:100FD000046145618461C46104628363C763FFF790
:100FE00073FEA04200D0FEE7124B134AD86018618E
:100FF0009861D8611862586218001A605E605D617D
:10100000FFF762FE00280AD1FA24A400FFF764FF6C
:101010002000FFF751F90948FFF76EFFF6E7FEE7FA
:1010200000100240000011100008004824000020B9
:101030000038014094000020004400406012000885
:1010400007B50120114B99690143996180219A6983
:10105000490502400092009ADA6906380A43DA61CB
:101060000022DB690B4001931100019BFFF734F96B
:101070000022022011004042FFF72EF90022012039
:1010800011004042FFF728F907BDC046001002409A
:101090007FB50F4B02689A4217D180200D4A80021B
:1010A000D1690143D161D36901A903400093009B39
:1010B0000C2301930A3B029390200023C005039365
:1010C000049301330593FFF76FF907B000BDC046E5
:1010D00000440040001002407047FEE77047704730
:1010E00010B5FFF7DBF8FFF75AF910BD802110B5F6
:1010F00089010748FFF708FA002804D09020202132
:10110000C005FFF70DFA80208001FFF70FFA10BD30
:10111000000800480121114B11481A680A431A605F
:101120005A6802405A601A680E4802401A601A68EB
:101130000D4802401A605A680C4802400F205A605D
:10114000DA6A8243DA621A6B094802401A635A6B00
:101150008A435A6300229A607047C04600100240DA
:101160000CB8FF08FFFFF6FEFFFFFBFFFFFFC0FF0D
:10117000ECFEFFFF0D4885460D480E490E4A002340
:1011800002E0D458C4500433C4188C42F9D30B4A3B
:101190000B4C002301E013600432A242FBD3FFF7A3
:1011A000B9FF00F011F8FFF7B7FEFEE700200020BE
:1011B0000000002004000020941200080400002019
:1011C00004010020FEE7000070B500260C4D0D4C18
:1011D000641BA410A64209D1002600F023F80A4D92
:1011E0000A4C641BA410A64205D170BDB300EB5895
:1011F00098470136EEE7B300EB5898470136F2E71F
:101200008C1200088C1200088C1200089012000842
:10121000002310B59A4200D110BDCC5CC4540133F8
:10122000F8E70000F8B5C046F8BC08BC9E46704719
:0C123000F8B5C046F8BC08BC9E467047EC
:10123C0002030405060708090A0B0C0D0E0F10100B
:10124C000102030405060708090A0B0C0D0E0F100A
:10125C0000040802546573746F76616369207679B3
:10126C007069730D0A00000000000000000001020C
:10127C000304060708090000000001020304000033
:04128C00E90000086D
:04129000C100000891
:0412940000127A00CA
:040000050800117569
:00000001FF
