:020000040800F2
:1000000000200020AD0F0008390F00083B0F00084A
:1000100000000000000000000000000000000000E0
:100020000000000000000000000000003D0F00087C
:1000300000000000000000003F0F0008410F000812
:10004000FD0F000800000000FD0F0008FD0F000874
:10005000FD0F0008FD0F0008FD0F0008FD0F000850
:1000600000000000FD0F0008FD0F0008FD0F000854
:10007000FD0F0008FD0F0008FD0F00080000000044
:10008000FD0F0008FD0F000800000000FD0F000834
:10009000FD0F0008FD0F0008FD0F0008FD0F000810
:1000A000FD0F0008FD0F0008FD0F0008FD0F000800
:1000B000FD0F00080000000000000000000000002C
:1000C00010B5064C2378002B07D1054B002B02D02E
:1000D000044800E000BF0123237010BD6800002029
:1000E00000000000401A0008044B10B5002B03D09C
:1000F0000349044800E000BF10BDC04600000000F6
:100100006C000020401A000802B4714649084900FA
:10011000095649008E4402BC7047C04602B471467D
:1001200049084900095C49008E4402BC7047C0463A
:10013000002243088B4274D303098B425FD3030A26
:100140008B4244D3030B8B4228D3030C8B420DD339
:10015000FF22090212BA030C8B4202D312120902C7
:1001600065D0030B8B4219D300E0090AC30B8B4205
:1001700001D3CB03C01A5241830B8B4201D38B03B3
:10018000C01A5241430B8B4201D34B03C01A524158
:10019000030B8B4201D30B03C01A5241C30A8B429B
:1001A00001D3CB02C01A5241830A8B4201D38B0286
:1001B000C01A5241430A8B4201D34B02C01A52412A
:1001C000030A8B4201D30B02C01A5241CDD2C3099C
:1001D0008B4201D3CB01C01A524183098B4201D318
:1001E0008B01C01A524143098B4201D34B01C01A03
:1001F000524103098B4201D30B01C01A5241C3087B
:100200008B4201D3CB00C01A524183088B4201D3E9
:100210008B00C01A524143088B4201D34B00C01AD5
:100220005241411A00D20146524110467047FFE741
:1002300001B5002000F006F802BDC0460029F7D045
:1002400076E770477047C04610B5040000F0FEFB2B
:10025000FA218900FFF76CFF00F066F80120002208
:100260002100404200F030F8002010BD1023064A63
:1002700010B5116800200B431360FFF7E5FF00F095
:100280000FFE002010BDC04600200240024A136845
:10029000013313607047C04690000020014B18687E
:1002A0007047C0469000002037B50190FFF7F6FF79
:1002B000019C0500631C5A1E9341E418FFF7EEFFF2
:1002C000401BA042FAD337BD70B58901002814DA6B
:1002D0000F23C0B20340083B114A9B089B009B18A8
:1002E000032210409040FC321500114085408140AF
:1002F000DC69AC432143D96170BD032583082840E4
:10030000A840FC352E00074A9B009B18C02286405F
:100310002940814092009C58B44321439950EBE717
:1003200000ED00E000E100E0094A431E0120934295
:100330000DD8C021074A08485360036A09061B020A
:100340001B0A0B4303620020072390601360704771
:10035000FFFFFF0010E000E000ED00E0054B1A6831
:10036000042802D110431860704704218A431A60A0
:10037000FAE7C04610E000E0704710B5FFF7FCFF59
:1003800010BD0000F0B50B6887B002930023019107
:10039000029ADA4001D107B0F0BD01229A400392DF
:1003A0000399029A0A40009200D18CE0019A102130
:1003B000526816008E43022E0ED107251D40AD0057
:1003C0000139A940DC08A4000419276A8F43019968
:1003D0000969A9400F43276203245F00BC40E4433E
:1003E0000568013E2540AC4603251540BD406146E9
:1003F0000D430560012E0FD801998668CD6826400F
:10040000BD40354385604668039915098E43012137
:100410000D409D4035434560C56801992C408D686D
:100420008021BD4049052C43C4600A424BD00121C4
:10043000264C0326A5691E400D43A561A4699D08AD
:100440000C400594059C0F242149AD00B6006D18A1
:10045000B4409021AF68C905A743002488420CD05E
:100460001C490134884208D01B490134884204D019
:100470001A490334884200D1023CB44000993C43FD
:100480000E00AC60164CCD4327683E43D10301D427
:100490003E002E4026606768009E3E43910301D4D3
:1004A0003E002E406660A768009E3E43D10201D404
:1004B0003E002E40A660E668009F3743920201D4BA
:1004C0002E403700E760013362E7C046001002406B
:1004D000000001400004004800080048000C0048EB
:1004E00000040140002A01D0816170478162FCE76D
:1004F0004369594041617047F0B5036885B0050014
:10050000DB072FD42B689B0700D581E02B681B07E6
:1005100000D5BCE02B685B0700D5DFE02B68DB066D
:100520001AD56A69B54C0423012A00D04BE1616BEE
:1005300002260B436363636B1A436263FFF7AEFEED
:100540000700636B334200D136E1F821626BAB697F
:100550008A43DB0013436363296A002900D059E111
:10056000002013E00C21A54C62680A40042A06D042
:1005700063680B40082B0BD16368DB0308D5236845
:100580009B03BFD56B68002BBCD1012005B0F0BD2B
:100590006B68012B13D1802322685B021343236015
:1005A000FFF77CFE80260700B60223683342A9D1FC
:1005B000FFF774FEC01B6428F7D90320E6E7002B81
:1005C00016D123688E4A80261340236023688D4A03
:1005D000B60213402360FFF761FE07002368334231
:1005E00000D18FE7FFF75AFEC01B6428F6D9E4E775
:1005F000052B05D180232268DB0213432360CAE761
:1006000023687F4A1340236023687E4A1340C6E76D
:100610000C227A4C6368134206D063681340082B9F
:1006200010D16368DB030DD423689B0702D5EB6808
:10063000012BAAD1F82122682B698A43DB001343DE
:10064000236063E7EA680123002A0FD022680226AC
:1006500013432360FFF722FE070023683342E9D1EA
:10066000FFF71CFEC01B0228F7D9A6E72268022666
:100670009A432260FFF712FE07002368334200D13D
:1006800044E7FFF70BFEC01B0228F6D995E7EA699D
:1006900001235A4C002A10D0626A02261343636277
:1006A000FFF7FCFD0700636A334200D032E7FFF733
:1006B000F5FDC01B0228F6D97FE7626A02269A433D
:1006C0006262FFF7EBFD0700636A334200D121E766
:1006D000FFF7E4FDC01B0228F6D96EE78022002157
:1006E000464C5205E3690091134208D1E369134374
:1006F000E361E36913400393039B01230093802785
:10070000414E7F0033683B4206D0AB68012B13D1CA
:10071000226A1343236230E033683B433360FFF7C0
:10072000BDFD019033683B42EFD1FFF7B7FD019B60
:10073000C01A6428F6D940E70122002B14D1236A9D
:10074000022793432362236A033293432362FFF712
:10075000A5FD0600236A3B4225D0FFF79FFD2B4BEA
:10076000801B9842F6D928E7052B0BD1216A013B63
:100770000B432362236A1A432262FFF78FFD02278D
:1007800006000DE0236A934304222362236A934305
:10079000C0E7FFF783FD1D4B801B984200D90CE793
:1007A000236A3B42F5D0009B012B00D0B6E6E369FB
:1007B000174A1340E361B1E6FFF770FDC01B022842
:1007C00000D8BEE6F9E6053203D1626B9A43626354
:1007D000BBE6626B0226134301226363636B9343A0
:1007E0006363FFF75BFD0700636B334200D1B3E641
:1007F000FFF754FDC01B0228F6D9DEE600100240C8
:10080000FFFFFEFFFFFFFBFF0070004088130000AA
:10081000FFFFFFEF0C22264C012063681340082BDA
:1008200000D1B3E62368234A1340236002292FD165
:10083000FFF734FD80260700B6042368334221D138
:100840000F22E36A9343EA6A1343E362696AAB6A7D
:1008500062680B43184980250A4013436360802374
:1008600022685B0413432360FFF718FD0600AD0404
:1008700023682B4200D073E6FFF710FD801B02288F
:10088000F6D99AE6FFF70AFDC01B0228D5D994E6EF
:10089000FFF704FD80250600AD0423682B4200D13C
:1008A0005EE6FFF7FBFC801B0228F6D985E6C04612
:1008B00000100240FFFFFFFEFFFFC2FF70B5144CA7
:1008C00088B010222100684600F0BEFB210004AD74
:1008D00010221031280000F0B7FB0C220D4E736877
:1008E0001A40082A11D10F206A46990C0140545C25
:1008F000F26A0240A95CDB0305D50748FFF718FC44
:10090000604308B070BD0548FAE70348F9E7C04600
:10091000581A00080010024000127A0000093D0039
:10092000F7B50122434C060023680F0013408B42A9
:100930001CD33268930723D4D30729D40123226818
:100940001A40974267D333683B4C5B076AD4FFF782
:10095000B5FF6368394A1B061B0FD35CD840384B80
:1009600018600020FFF770FC002008E02368934324
:100970000B432360236813409942DAD00120FEBD67
:10098000F0202D494B688343B06803434B60D3E7A5
:10099000294D72682B68012A1AD19B03EED50321D9
:1009A0006B688B4313436B60FFF778FC73680190AF
:1009B000012B15D10C226B681340042BBED0FFF71E
:1009C0006DFC019BC01A1F4B9842F3D90320D6E758
:1009D000022A02D19B01E2D4D0E79B07DFD4CDE706
:1009E000022B12D00C226B681342A7D0FFF756FCE3
:1009F000019BC01A134B9842F4D9E7E7FFF74EFC6E
:100A0000019BC01A0F4B9842E0D80C226B68134030
:100A1000082BF3D192E722689A43226022681A4297
:100A2000ACD190E76368084A1340F26813436360EF
:100A30008DE7C0460020024000100240831A0008E3
:100A40000000002088130000FFF8FFFF014B18682A
:100A50007047C04600000020044B054A5B685B05F8
:100A60005B0FD35C034A1068D84070470010024007
:100A7000931A00080000002070B504000568C269E0
:100A8000836800692968034360693F4E03433F4818
:100A9000134301400B432B606B683D49206A0B40B8
:100AA000E1680B436B60A369A968034339480140BF
:100AB0000B43AB6080231B02B54210D103203649A3
:100AC000096B01403548405C9A4213D0082858D839
:100AD000FFF724FB375742574B57575750003049C1
:100AE0008D424CD19A422CD1FFF7B6FF636840008B
:100AF0005B080BE0082821D8FFF706FBF62005204D
:100B0000182020201B0063685808264BC018616815
:100B1000FFF70EFB83B200200F22190091430A0059
:100B20001B0721685B0F1343CB6070BDFFF7C6FE48
:100B3000DCE76368580880235B02E7E701200023B5
:100B4000EAE7FFF789FF61684B081818FFF7F0FA2A
:100B500080B2E8600020E8E76168134B4808C018DD
:100B6000FFF7E6FA80B2F060F4E7FFF7A7FE6168EE
:100B70004B08F4E7802361681B024808EFE79A42BC
:100B8000DCD00120D1E7C04600380140F369FFFF07
:100B9000FFCFFFFFFFF4FFFF00100240781A0008AC
:100BA000004400400024F40000127A00436A30B58B
:100BB000DA0706D50168284C4A682240846A224335
:100BC0004A609A0706D50168244C4A682240C46AE4
:100BD00022434A605A0706D50168214C4A682240E0
:100BE000046B22434A601A0706D501681D4C4A6807
:100BF0002240446B22434A60DA0606D501681A4C4B
:100C00008A682240846B22438A609A0606D501686E
:100C1000164C8A682240C46B22438A605A0610D55B
:100C20000168134D4A68046C2A4022434A608022BE
:100C30005203944205D14A680E4C2240446C224330
:100C40004A601B0606D502680B4953680B40816C4D
:100C50000B43536030BDC046FFFFFDFFFFFFFEFFAB
:100C6000FFFFFBFFFF7FFFFFFFEFFFFFFFDFFFFF48
:100C7000FFFFEFFFFFFF9FFFFFFFF7FF70B5041EB1
:100C800001D1012070BD050069352B78DBB2002B46
:100C900004D102006832137000F02AF924230121E4
:100CA00022682B70136820008B431360FFF7E4FE6B
:100CB0000128E6D0636A002B02D02000FFF776FF00
:100CC00023680B495A6800200A4008215A609A6834
:100CD0008A439A60012219680A431A60220020237D
:100CE000E0666A3268342B7013702070CAE7C04621
:100CF000FFF7FFFF102330B5A02291B00224012599
:100D000008930023920304A8049407950C940D9370
:100D10000E920F93FFF7F0FB002800D0FEE70723A9
:100D2000029003902900684601940093FFF7F8FDB4
:100D3000041E00D0FEE7FFF789FEFA218900FFF7C5
:100D4000F7F9FFF7F1FA0420FFF708FB0120220072
:100D500021004042FFF7B8FA11B030BD10B5902421
:100D6000E40520212000FFF7C3FBC820FFF79CFA11
:100D700020212000FFF7BCFBC820FFF795FA10BD2B
:100D800070B588B0FFF772FAFFF7B4FF80203C4BD4
:100D9000000359698026014359615A6900240240C1
:100DA00080200092009A5969C00301435961802153
:100DB0005A698902024090200192019A5A69C0053D
:100DC0000A435A615B6900220B4002932021029B77
:100DD000FFF788FB2B4BB60103A92B48049303961E
:100DE0000594FFF7CFFA90200125032303A9C0053E
:100DF000039504930594FFF7C5FA90202023C005BE
:100E000003A90393049505940694FFF7BBFA1F48C2
:100E10001F4B0B35036096239B01436030234362D5
:100E200080235B018460C460046145618461C461A6
:100E300004628363C663FFF721FFA04200D0FEE790
:100E4000144B154A98601A609622D86012021861F5
:100E50009861D8611862586218005A605D61FFF7A6
:100E60000DFF00280AD1FA24A400FFF777FF200025
:100E7000FFF71AFA094800F051F9F6E7FEE7C04615
:100E800000100240000021100008004894000020DB
:100E90000038014004010020004400407C1A000892
:100EA00007B50120114B99690143996180219A6925
:100EB000490502400092009ADA6906380A43DA616D
:100EC0000022DB690B4001931100019BFFF7FCF945
:100ED0000022022011004042FFF7F6F90022012013
:100EE00011004042FFF7F0F907BDC0460010024074
:100EF0007FB50F4B02689A4217D180200D4A8002BD
:100F0000D1690143D161D36901A903400093009BDA
:100F10000C2301930A3B029390200023C005039306
:100F2000049301330593FFF72DFA07B000BDC046C7
:100F300000440040001002407047FEE770477047D1
:100F400010B5FFF7A3F9FFF718FA10BD0121114BF7
:100F500011481A680A431A605A6802405A601A68AF
:100F60000E4802401A601A680D4802401A605A681A
:100F70000C4802400F205A60DA6A8243DA621A6B28
:100F8000094802401A635A6B8A435A6300229A60E6
:100F90007047C046001002400CB8FF08FFFFF6FE85
:100FA000FFFFFBFFFFFFC0FFECFEFFFF0D48854684
:100FB0000D480E490E4A002302E0D458C4500433B1
:100FC000C4188C42F9D30B4A0B4C002301E0136088
:100FD0000432A242FBD3FFF7B9FF00F011F8FFF78C
:100FE000CFFEFEE700200020000000206800002067
:100FF000081B00086800002078010020FEE70000C0
:1010000070B500260C4D0D4C641BA410A64209D1EE
:10101000002600F015FD0A4D0A4C641BA410A642E0
:1010200005D170BDB300EB5898470136EEE7B30029
:10103000EB5898470136F2E7001B0008001B000838
:10104000001B0008041B0008002310B59A4200D1C1
:1010500010BDCC5CC4540133F8E7000070B5050046
:101060000E00002804D08369002B01D100F024FA7F
:10107000AB69AC68002B02D1280000F01DFA244BAC
:101080009C420FD16C68A3891B0702D52369002BF2
:1010900020D12100280000F0A1F800281AD001205A
:1010A000404270BD1B4B9C4201D1AC68EBE71A4B30
:1010B0009C42E8D1EC68E6E7013B0136A360002BD7
:1010C00004DAA269934216DB0A2914D023685A1C59
:1010D000226019703178A3680029EDD1013BA3602B
:1010E000002B0FDA22000A31280000F021F8431CFF
:1010F000D5D00A20D5E72200280000F019F8431CBB
:10110000E8D1CCE70A2023685A1C22601870C8E78F
:10111000BC1A0008DC1A00089C1A000810B5034B22
:1011200001001868FFF79AFF10BDC04604000020B8
:10113000F8B505000E001400002804D08369002BC8
:1011400001D100F0B9F9224B9C422DD16C68A36902
:10115000A360A3891B0731D52369002B2ED02368F8
:101160002269F7B2981A6369F6B2984205DB21004A
:10117000280000F033F9002826D1A3680130013B94
:10118000A36023685A1C22601F706369984204D0D0
:10119000A389DB071AD50A2E18D12100280000F0F8
:1011A0001DF9002812D00FE00A4B9C4201D1AC6817
:1011B000CDE7094B9C42CAD1EC68C8E72100280062
:1011C00000F00CF80028CAD0012676423000F8BDA5
:1011D000BC1A0008DC1A00089C1A0008364B70B5CF
:1011E0001D6806000C00002D05D0AB69002B02D154
:1011F000280000F061F9314B9C420FD16C680C2340
:10120000E25E93B219072DD4D90611D40923012027
:10121000336037331343A381404270BD284B9C4257
:1012200001D1AC68EBE7274B9C42E8D1EC68E6E7DC
:101230005B0713D5616B002908D023004433994222
:1012400002D0300000F042FA002363632422A38915
:101250009343A38100236360236923600823A28949
:101260001343A3812369002B0BD1A0218022A389E2
:10127000890092000B40934203D02100300000F01F
:10128000D9F90123A289134011D00023A360636917
:101290005B42A361002023698342BED10C23E25E3E
:1012A0001306BAD540231343A3810138B5E792074B
:1012B00000D46369A360EDE704000020BC1A0008B5
:1012C000DC1A00089C1A0008F7B58A8905000C0092
:1012D000130760D44B68002B04DC0B6C002B01DC83
:1012E0000020FEBDE76A002FFAD000232E682B6095
:1012F00080235B011A4034D0606DA3895B0706D55B
:101300006368C01A636B002B01D0236CC01A020003
:10131000216A00232800E76AB847A189431C06D147
:101320002B681D2B31D82C4ADA40D3072DD500234A
:10133000636023692360CB0405D5431C02D12B686D
:10134000002B00D16065616B2E600029C8D023009E
:101350004433994202D0280000F0B8F900206063BD
:10136000BFE70123216A2800B847431CC5D12B6879
:10137000002BC2D01D2B01D0162B01D12E60AFE760
:101380004023A2891343A381ABE740230B430120F1
:10139000A3814042A5E70F69002FA1D00B680F6021
:1013A000DB1B01930023920700D14B69A360019BD3
:1013B000002B00DC94E7019B3A00216A2800A66A12
:1013C000B047002803DC4023A2891343DFE7019BD9
:1013D0003F181B1A0193EAE7010040200B6970B522
:1013E00005000C00002B01D1002070BD002804D0A6
:1013F0008369002B01D100F05FF80B4B9C4209D1AF
:101400006C680C22A35E002BEED021002800FFF7B1
:101410005BFFEAE7054B9C4201D1AC68F1E7044B66
:101420009C42EED1EC68ECE7BC1A0008DC1A00081C
:101430009C1A000810B5024900F0B2F810BDC04671
:10144000DD130008002310B50400036043608360CF
:1014500081814366C281036143618361190008226F
:101460005C3000F02BF9054B24626362044BA362ED
:10147000044BE362044B236310BDC04641180008CF
:1014800069180008A1180008CD18000870B5682573
:101490004A1E55430E002900743100F061F9041E04
:1014A00008D000212A00016046600C30A06068323C
:1014B00000F004F9200070BD836913B50400002B0F
:1014C00028D18364C3640365134B144A1B6882628A
:1014D0000193984201D101238361200000F020F89C
:1014E0006060200000F01CF8A060200000F018F8F8
:1014F0000022E06004216068FFF7A4FF01220921B7
:10150000A068FFF79FFF02221221E068FFF79AFF11
:101510000123A36113BDC046FC1A0008351400085E
:10152000F8B51E4B07001E68B369002B02D13000CE
:10153000FFF7C2FF4836B4687368013B04D53368CF
:10154000002B07D03668F6E70C22A55E002D0DD0E3
:101550006834F2E704213800FFF798FF3060002874
:10156000F0D10C2304003B602000F8BD01232000D3
:101570005B42E3810233A38165662560A5606560F7
:1015800025616561A561082229005C3000F096F8AC
:101590006563A563A564E564E6E7C046FC1A000838
:1015A000F7B504000700002601914834002C01D152
:1015B0003000FEBD6368A5680093009B013B00936B
:1015C00001D52468F2E7AB89012B08D90E22AB5E66
:1015D000013304D029003800019B98470643683541
:1015E000EBE7000070B50E001D000E23C95E90B041
:1015F0001400002907DA00232B60B3891B0611D4DD
:101600008023DB000FE001AA00F08CF90028F2DB58
:10161000F022029B12021340054A9B185A42534182
:101620002B60EDE740230020236010B070BDC04662
:1016300000E0FFFFF7B502268B8905000C0033425E
:1016400006D0230047332360236101236361F7BD84
:1016500001AB6A46FFF7C6FF00990700280000F0BB
:101660007FF8002808D10C22A35E9A05EFD403224C
:1016700093431E43A681E4E70F4BAB628023A2890C
:1016800020601343A381009B20616361019B002BB9
:101690000DD00E23E15E280000F056F9002806D098
:1016A0000322A38993431A0001231343A381A08932
:1016B0003843A081CBE7C0463514000803008218E8
:1016C000934200D1704719700133F9E770B50500F6
:1016D000002910D00C1F2368002B00DAE418280022
:1016E00000F058F91D4A1368002B05D1636014609F
:1016F000280000F050F970BDA34209D92168601894
:101700008342F3D118685B6841182160EEE713004B
:101710005A68002A01D0A242F9D919685818A04283
:101720000BD120680918581819608242E0D110685E
:101730005268411819605A60DAE7A04202D90C23B6
:101740002B60D5E721686018824203D11068526887
:101750004118216062605C60CAE7C04684000020D6
:10176000032370B5CD1C9D43083506000C2D1ED2F9
:101770000C25A9421DD8300000F00CF9254A146848
:101780002100002919D1244C2368002B03D13000FB
:1017900000F044F820602900300000F03FF8431CBE
:1017A0002CD10C233000336000F0F5F803E0002D5D
:1017B000DFDA0C233360002070BD0B685B1B1AD48A
:1017C0000B2B03D90B60CC18256003E08C420ED1A3
:1017D00063681360300000F0DEF8200007220B3051
:1017E000231D9043C31AE7D05A42E250E4E74B6806
:1017F00063600C00EEE70C004968C2E70323C41CD9
:101800009C43A042E0D0211A300000F007F8431CAE
:10181000DAD1C6E78400002088000020002370B5DC
:10182000064C05000800236000F0F2F8431C03D1C9
:101830002368002B00D02B6070BDC04674010020CF
:1018400070B50C000E25495F00F0A6F8002803DBF8
:10185000636D1B18636570BDA389024A1340A381A1
:10186000F9E7C046FFEFFFFFF8B51F008B890500C1
:101870000C001600DB0505D50E23C95E00220223ED
:1018800000F074F8A389054A28001340A3813200B0
:101890000E23E15E3B0000F01FF8F8BDFFEFFFFFF5
:1018A00070B50C000E25495F00F060F8A389421C5A
:1018B00003D1054A1340A38170BD80225201134316
:1018C000A3816065F8E7C046FFEFFFFF10B50E2368
:1018D000C95E00F015F810BD70B5050008001100D4
:1018E0000022064C22601A0000F0A2F8431C03D12B
:1018F0002368002B00D02B6070BDC046740100200F
:10190000002370B5064C05000800236000F058F86D
:10191000431C03D12368002B00D02B6070BDC04650
:1019200074010020002370B5064C0500080011006A
:10193000236000F04DF8431C03D12368002B00D036
:101940002B6070BD74010020002370B5064C0500AB
:101950000800236000F044F8431C03D12368002BE7
:1019600000D02B6070BDC0467401002070B505002A
:10197000080011000022064C22601A0000F038F81E
:10198000431C03D12368002B00D02B6070BDC046E0
:10199000740100207047704770B505000800110001
:1019A0000022064C22601A0000F02AF8431C03D1E2
:1019B0002368002B00D02B6070BDC046740100204E
:1019C00058220120014B40421A60704774010020E8
:1019D00058220120014B40421A60704774010020D8
:1019E0005822024B00201A607047C0467401002044
:1019F00058220120014B40421A60704774010020B8
:101A000058220120014B40421A60704774010020A7
:101A1000054B02001968002901D1044919601868B2
:101A200082181A607047C0468C00002078010020A0
:101A300058220120014B40421A6070477401002077
:101A4000F8B5C046F8BC08BC9E467047F8B5C0461D
:081A5000F8BC08BC9E4670477B
:101A580002030405060708090A0B0C0D0E0F1010E7
:101A68000102030405060708090A0B0C0D0E0F10E6
:101A78000004080248656C6C6F0D0000000000004F
:101A88000000000102030406070809000000000125
:101A98000203040000000000000000000000000035
:101AA800000000000000000000000000000000002E
:101AB800000000000000000000000000000000001E
:101AC800000000000000000000000000000000000E
:101AD80000000000000000000000000000000000FE
:101AE80000000000000000000000000000000000EE
:081AF8000000000008000020BE
:041B0000E9000008F0
:041B0400C100000814
:101B080000127A000800002000000000BC1A00083B
:101B1800DC1A00089C1A0008000000000000000001
:101B280000000000000000000000000000000000AD
:101B3800000000000000000000000000000000009D
:101B4800000000000000000000000000000000008D
:101B5800000000000000000000000000000000007D
:081B6800000000000000000075
:0400000508000FAD33
:00000001FF
